{
  "_format": "hh-sol-artifact-1",
  "contractName": "Metana",
  "sourceName": "contracts/Metana.sol",
  "abi": [
    {
      "inputs": [],
      "stateMutability": "nonpayable",
      "type": "constructor"
    },
    {
      "anonymous": false,
      "inputs": [
        {
          "indexed": true,
          "internalType": "address",
          "name": "owner",
          "type": "address"
        },
        {
          "indexed": true,
          "internalType": "address",
          "name": "spender",
          "type": "address"
        },
        {
          "indexed": false,
          "internalType": "uint256",
          "name": "value",
          "type": "uint256"
        }
      ],
      "name": "Approval",
      "type": "event"
    },
    {
      "anonymous": false,
      "inputs": [
        {
          "indexed": true,
          "internalType": "address",
          "name": "previousOwner",
          "type": "address"
        },
        {
          "indexed": true,
          "internalType": "address",
          "name": "newOwner",
          "type": "address"
        }
      ],
      "name": "OwnershipTransferred",
      "type": "event"
    },
    {
      "anonymous": false,
      "inputs": [
        {
          "indexed": false,
          "internalType": "address",
          "name": "account",
          "type": "address"
        }
      ],
      "name": "Paused",
      "type": "event"
    },
    {
      "anonymous": false,
      "inputs": [
        {
          "indexed": true,
          "internalType": "address",
          "name": "from",
          "type": "address"
        },
        {
          "indexed": true,
          "internalType": "address",
          "name": "to",
          "type": "address"
        },
        {
          "indexed": false,
          "internalType": "uint256",
          "name": "value",
          "type": "uint256"
        }
      ],
      "name": "Transfer",
      "type": "event"
    },
    {
      "anonymous": false,
      "inputs": [
        {
          "indexed": false,
          "internalType": "address",
          "name": "account",
          "type": "address"
        }
      ],
      "name": "Unpaused",
      "type": "event"
    },
    {
      "inputs": [],
      "name": "DOMAIN_SEPARATOR",
      "outputs": [
        {
          "internalType": "bytes32",
          "name": "",
          "type": "bytes32"
        }
      ],
      "stateMutability": "view",
      "type": "function"
    },
    {
      "inputs": [
        {
          "internalType": "address",
          "name": "owner",
          "type": "address"
        },
        {
          "internalType": "address",
          "name": "spender",
          "type": "address"
        }
      ],
      "name": "allowance",
      "outputs": [
        {
          "internalType": "uint256",
          "name": "",
          "type": "uint256"
        }
      ],
      "stateMutability": "view",
      "type": "function"
    },
    {
      "inputs": [
        {
          "internalType": "address",
          "name": "spender",
          "type": "address"
        },
        {
          "internalType": "uint256",
          "name": "amount",
          "type": "uint256"
        }
      ],
      "name": "approve",
      "outputs": [
        {
          "internalType": "bool",
          "name": "",
          "type": "bool"
        }
      ],
      "stateMutability": "nonpayable",
      "type": "function"
    },
    {
      "inputs": [
        {
          "internalType": "address",
          "name": "account",
          "type": "address"
        }
      ],
      "name": "balanceOf",
      "outputs": [
        {
          "internalType": "uint256",
          "name": "",
          "type": "uint256"
        }
      ],
      "stateMutability": "view",
      "type": "function"
    },
    {
      "inputs": [
        {
          "internalType": "uint256",
          "name": "amount",
          "type": "uint256"
        }
      ],
      "name": "burn",
      "outputs": [],
      "stateMutability": "nonpayable",
      "type": "function"
    },
    {
      "inputs": [
        {
          "internalType": "address",
          "name": "account",
          "type": "address"
        },
        {
          "internalType": "uint256",
          "name": "amount",
          "type": "uint256"
        }
      ],
      "name": "burnFrom",
      "outputs": [],
      "stateMutability": "nonpayable",
      "type": "function"
    },
    {
      "inputs": [],
      "name": "decimals",
      "outputs": [
        {
          "internalType": "uint8",
          "name": "",
          "type": "uint8"
        }
      ],
      "stateMutability": "view",
      "type": "function"
    },
    {
      "inputs": [
        {
          "internalType": "address",
          "name": "spender",
          "type": "address"
        },
        {
          "internalType": "uint256",
          "name": "subtractedValue",
          "type": "uint256"
        }
      ],
      "name": "decreaseAllowance",
      "outputs": [
        {
          "internalType": "bool",
          "name": "",
          "type": "bool"
        }
      ],
      "stateMutability": "nonpayable",
      "type": "function"
    },
    {
      "inputs": [
        {
          "internalType": "address",
          "name": "token",
          "type": "address"
        },
        {
          "internalType": "uint256",
          "name": "amount",
          "type": "uint256"
        }
      ],
      "name": "flashFee",
      "outputs": [
        {
          "internalType": "uint256",
          "name": "",
          "type": "uint256"
        }
      ],
      "stateMutability": "view",
      "type": "function"
    },
    {
      "inputs": [
        {
          "internalType": "contract IERC3156FlashBorrower",
          "name": "receiver",
          "type": "address"
        },
        {
          "internalType": "address",
          "name": "token",
          "type": "address"
        },
        {
          "internalType": "uint256",
          "name": "amount",
          "type": "uint256"
        },
        {
          "internalType": "bytes",
          "name": "data",
          "type": "bytes"
        }
      ],
      "name": "flashLoan",
      "outputs": [
        {
          "internalType": "bool",
          "name": "",
          "type": "bool"
        }
      ],
      "stateMutability": "nonpayable",
      "type": "function"
    },
    {
      "inputs": [
        {
          "internalType": "address",
          "name": "spender",
          "type": "address"
        },
        {
          "internalType": "uint256",
          "name": "addedValue",
          "type": "uint256"
        }
      ],
      "name": "increaseAllowance",
      "outputs": [
        {
          "internalType": "bool",
          "name": "",
          "type": "bool"
        }
      ],
      "stateMutability": "nonpayable",
      "type": "function"
    },
    {
      "inputs": [
        {
          "internalType": "address",
          "name": "token",
          "type": "address"
        }
      ],
      "name": "maxFlashLoan",
      "outputs": [
        {
          "internalType": "uint256",
          "name": "",
          "type": "uint256"
        }
      ],
      "stateMutability": "view",
      "type": "function"
    },
    {
      "inputs": [
        {
          "internalType": "address",
          "name": "to",
          "type": "address"
        },
        {
          "internalType": "uint256",
          "name": "amount",
          "type": "uint256"
        }
      ],
      "name": "mint",
      "outputs": [],
      "stateMutability": "nonpayable",
      "type": "function"
    },
    {
      "inputs": [],
      "name": "name",
      "outputs": [
        {
          "internalType": "string",
          "name": "",
          "type": "string"
        }
      ],
      "stateMutability": "view",
      "type": "function"
    },
    {
      "inputs": [
        {
          "internalType": "address",
          "name": "owner",
          "type": "address"
        }
      ],
      "name": "nonces",
      "outputs": [
        {
          "internalType": "uint256",
          "name": "",
          "type": "uint256"
        }
      ],
      "stateMutability": "view",
      "type": "function"
    },
    {
      "inputs": [],
      "name": "owner",
      "outputs": [
        {
          "internalType": "address",
          "name": "",
          "type": "address"
        }
      ],
      "stateMutability": "view",
      "type": "function"
    },
    {
      "inputs": [],
      "name": "pause",
      "outputs": [],
      "stateMutability": "nonpayable",
      "type": "function"
    },
    {
      "inputs": [],
      "name": "paused",
      "outputs": [
        {
          "internalType": "bool",
          "name": "",
          "type": "bool"
        }
      ],
      "stateMutability": "view",
      "type": "function"
    },
    {
      "inputs": [
        {
          "internalType": "address",
          "name": "owner",
          "type": "address"
        },
        {
          "internalType": "address",
          "name": "spender",
          "type": "address"
        },
        {
          "internalType": "uint256",
          "name": "value",
          "type": "uint256"
        },
        {
          "internalType": "uint256",
          "name": "deadline",
          "type": "uint256"
        },
        {
          "internalType": "uint8",
          "name": "v",
          "type": "uint8"
        },
        {
          "internalType": "bytes32",
          "name": "r",
          "type": "bytes32"
        },
        {
          "internalType": "bytes32",
          "name": "s",
          "type": "bytes32"
        }
      ],
      "name": "permit",
      "outputs": [],
      "stateMutability": "nonpayable",
      "type": "function"
    },
    {
      "inputs": [],
      "name": "renounceOwnership",
      "outputs": [],
      "stateMutability": "nonpayable",
      "type": "function"
    },
    {
      "inputs": [],
      "name": "symbol",
      "outputs": [
        {
          "internalType": "string",
          "name": "",
          "type": "string"
        }
      ],
      "stateMutability": "view",
      "type": "function"
    },
    {
      "inputs": [],
      "name": "totalSupply",
      "outputs": [
        {
          "internalType": "uint256",
          "name": "",
          "type": "uint256"
        }
      ],
      "stateMutability": "view",
      "type": "function"
    },
    {
      "inputs": [
        {
          "internalType": "address",
          "name": "to",
          "type": "address"
        },
        {
          "internalType": "uint256",
          "name": "amount",
          "type": "uint256"
        }
      ],
      "name": "transfer",
      "outputs": [
        {
          "internalType": "bool",
          "name": "",
          "type": "bool"
        }
      ],
      "stateMutability": "nonpayable",
      "type": "function"
    },
    {
      "inputs": [
        {
          "internalType": "address",
          "name": "from",
          "type": "address"
        },
        {
          "internalType": "address",
          "name": "to",
          "type": "address"
        },
        {
          "internalType": "uint256",
          "name": "amount",
          "type": "uint256"
        }
      ],
      "name": "transferFrom",
      "outputs": [
        {
          "internalType": "bool",
          "name": "",
          "type": "bool"
        }
      ],
      "stateMutability": "nonpayable",
      "type": "function"
    },
    {
      "inputs": [
        {
          "internalType": "address",
          "name": "newOwner",
          "type": "address"
        }
      ],
      "name": "transferOwnership",
      "outputs": [],
      "stateMutability": "nonpayable",
      "type": "function"
    },
    {
      "inputs": [],
      "name": "unpause",
      "outputs": [],
      "stateMutability": "nonpayable",
      "type": "function"
    }
  ],
  "bytecode": "0x6101406040523480156200001257600080fd5b506040518060400160405280600681526020017f4d6574616e610000000000000000000000000000000000000000000000000000815250806040518060400160405280600181526020017f31000000000000000000000000000000000000000000000000000000000000008152506040518060400160405280600681526020017f4d6574616e6100000000000000000000000000000000000000000000000000008152506040518060400160405280600381526020017f4d544e000000000000000000000000000000000000000000000000000000000081525081600390805190602001906200010492919062000584565b5080600490805190602001906200011d92919062000584565b5050506000600560006101000a81548160ff0219169083151502179055506200015b6200014f6200025560201b60201c565b6200025d60201b60201c565b60008280519060200120905060008280519060200120905060007f8b73c3c69bb8fe3d512ecc4cf759cc79239f7b179b0ffacaa9a75d522b39400f90508260e081815250508161010081815250504660a08181525050620001c48184846200032360201b60201c565b608081815250503073ffffffffffffffffffffffffffffffffffffffff1660c08173ffffffffffffffffffffffffffffffffffffffff1660601b815250508061012081815250505050505050506200024f33620002266200035f60201b60201c565b600a6200023491906200083c565b6103e862000243919062000979565b6200036860201b60201c565b62000b22565b600033905090565b6000600560019054906101000a900473ffffffffffffffffffffffffffffffffffffffff16905081600560016101000a81548173ffffffffffffffffffffffffffffffffffffffff021916908373ffffffffffffffffffffffffffffffffffffffff1602179055508173ffffffffffffffffffffffffffffffffffffffff168173ffffffffffffffffffffffffffffffffffffffff167f8be0079c531659141344cd1fd0a4f28419497f9722a3daafe3b4186f6b6457e060405160405180910390a35050565b6000838383463060405160200162000340959493929190620006b5565b6040516020818303038152906040528051906020012090509392505050565b60006012905090565b600073ffffffffffffffffffffffffffffffffffffffff168273ffffffffffffffffffffffffffffffffffffffff161415620003db576040517f08c379a0000000000000000000000000000000000000000000000000000000008152600401620003d29062000734565b60405180910390fd5b620003ef60008383620004e160201b60201c565b806002600082825462000403919062000784565b92505081905550806000808473ffffffffffffffffffffffffffffffffffffffff1673ffffffffffffffffffffffffffffffffffffffff16815260200190815260200160002060008282546200045a919062000784565b925050819055508173ffffffffffffffffffffffffffffffffffffffff16600073ffffffffffffffffffffffffffffffffffffffff167fddf252ad1be2c89b69c2b068fc378daa952ba7f163c4a11628f55a4df523b3ef83604051620004c1919062000756565b60405180910390a3620004dd600083836200050e60201b60201c565b5050565b620004f16200051360201b60201c565b620005098383836200056860201b62000e1d1760201c565b505050565b505050565b620005236200056d60201b60201c565b1562000566576040517f08c379a00000000000000000000000000000000000000000000000000000000081526004016200055d9062000712565b60405180910390fd5b565b505050565b6000600560009054906101000a900460ff16905090565b828054620005929062000a2f565b90600052602060002090601f016020900481019282620005b6576000855562000602565b82601f10620005d157805160ff191683800117855562000602565b8280016001018555821562000602579182015b8281111562000601578251825591602001919060010190620005e4565b5b50905062000611919062000615565b5090565b5b808211156200063057600081600090555060010162000616565b5090565b6200063f81620009da565b82525050565b6200065081620009ee565b82525050565b60006200066560108362000773565b9150620006728262000ad0565b602082019050919050565b60006200068c601f8362000773565b9150620006998262000af9565b602082019050919050565b620006af8162000a18565b82525050565b600060a082019050620006cc600083018862000645565b620006db602083018762000645565b620006ea604083018662000645565b620006f96060830185620006a4565b62000708608083018462000634565b9695505050505050565b600060208201905081810360008301526200072d8162000656565b9050919050565b600060208201905081810360008301526200074f816200067d565b9050919050565b60006020820190506200076d6000830184620006a4565b92915050565b600082825260208201905092915050565b6000620007918262000a18565b91506200079e8362000a18565b9250827fffffffffffffffffffffffffffffffffffffffffffffffffffffffffffffffff03821115620007d657620007d562000a65565b5b828201905092915050565b6000808291508390505b600185111562000833578086048111156200080b576200080a62000a65565b5b60018516156200081b5780820291505b80810290506200082b8562000ac3565b9450620007eb565b94509492505050565b6000620008498262000a18565b9150620008568362000a22565b9250620008857fffffffffffffffffffffffffffffffffffffffffffffffffffffffffffffffff84846200088d565b905092915050565b6000826200089f576001905062000972565b81620008af576000905062000972565b8160018114620008c85760028114620008d35762000909565b600191505062000972565b60ff841115620008e857620008e762000a65565b5b8360020a91508482111562000902576200090162000a65565b5b5062000972565b5060208310610133831016604e8410600b8410161715620009435782820a9050838111156200093d576200093c62000a65565b5b62000972565b620009528484846001620007e1565b925090508184048111156200096c576200096b62000a65565b5b81810290505b9392505050565b6000620009868262000a18565b9150620009938362000a18565b9250817fffffffffffffffffffffffffffffffffffffffffffffffffffffffffffffffff0483118215151615620009cf57620009ce62000a65565b5b828202905092915050565b6000620009e782620009f8565b9050919050565b6000819050919050565b600073ffffffffffffffffffffffffffffffffffffffff82169050919050565b6000819050919050565b600060ff82169050919050565b6000600282049050600182168062000a4857607f821691505b6020821081141562000a5f5762000a5e62000a94565b5b50919050565b7f4e487b7100000000000000000000000000000000000000000000000000000000600052601160045260246000fd5b7f4e487b7100000000000000000000000000000000000000000000000000000000600052602260045260246000fd5b60008160011c9050919050565b7f5061757361626c653a2070617573656400000000000000000000000000000000600082015250565b7f45524332303a206d696e7420746f20746865207a65726f206164647265737300600082015250565b60805160a05160c05160601c60e051610100516101205161348062000b7560003960006113b0015260006113f2015260006113d1015260006113060152600061135c0152600061138501526134806000f3fe608060405234801561001057600080fd5b506004361061018e5760003560e01c806370a08231116100de57806395d89b4111610097578063d505accf11610071578063d505accf14610487578063d9d98ce4146104a3578063dd62ed3e146104d3578063f2fde38b146105035761018e565b806395d89b4114610409578063a457c2d714610427578063a9059cbb146104575761018e565b806370a082311461035b578063715018a61461038b57806379cc6790146103955780637ecebe00146103b15780638456cb59146103e15780638da5cb5b146103eb5761018e565b8063395093511161014b57806342966c681161012557806342966c68146102c15780635c975abb146102dd5780635cffe9de146102fb578063613255ab1461032b5761018e565b8063395093511461026b5780633f4ba83a1461029b57806340c10f19146102a55761018e565b806306fdde0314610193578063095ea7b3146101b157806318160ddd146101e157806323b872dd146101ff578063313ce5671461022f5780633644e5151461024d575b600080fd5b61019b61051f565b6040516101a891906128b9565b60405180910390f35b6101cb60048036038101906101c691906121be565b6105b1565b6040516101d8919061278a565b60405180910390f35b6101e96105d4565b6040516101f69190612bbb565b60405180910390f35b610219600480360381019061021491906120d1565b6105de565b604051610226919061278a565b60405180910390f35b61023761060d565b6040516102449190612bd6565b60405180910390f35b610255610616565b60405161026291906127a5565b60405180910390f35b610285600480360381019061028091906121be565b610625565b604051610292919061278a565b60405180910390f35b6102a361065c565b005b6102bf60048036038101906102ba91906121be565b61066e565b005b6102db60048036038101906102d691906122a3565b610684565b005b6102e5610698565b6040516102f2919061278a565b60405180910390f35b61031560048036038101906103109190612223565b6106af565b604051610322919061278a565b60405180910390f35b6103456004803603810190610340919061206c565b6108ab565b6040516103529190612bbb565b60405180910390f35b6103756004803603810190610370919061206c565b610922565b6040516103829190612bbb565b60405180910390f35b61039361096a565b005b6103af60048036038101906103aa91906121be565b61097e565b005b6103cb60048036038101906103c6919061206c565b61099e565b6040516103d89190612bbb565b60405180910390f35b6103e96109ee565b005b6103f3610a00565b6040516104009190612713565b60405180910390f35b610411610a2a565b60405161041e91906128b9565b60405180910390f35b610441600480360381019061043c91906121be565b610abc565b60405161044e919061278a565b60405180910390f35b610471600480360381019061046c91906121be565b610b33565b60405161047e919061278a565b60405180910390f35b6104a1600480360381019061049c9190612120565b610b56565b005b6104bd60048036038101906104b891906121be565b610c98565b6040516104ca9190612bbb565b60405180910390f35b6104ed60048036038101906104e89190612095565b610d12565b6040516104fa9190612bbb565b60405180910390f35b61051d6004803603810190610518919061206c565b610d99565b005b60606003805461052e90612d66565b80601f016020809104026020016040519081016040528092919081815260200182805461055a90612d66565b80156105a75780601f1061057c576101008083540402835291602001916105a7565b820191906000526020600020905b81548152906001019060200180831161058a57829003601f168201915b5050505050905090565b6000806105bc610e22565b90506105c9818585610e2a565b600191505092915050565b6000600254905090565b6000806105e9610e22565b90506105f6858285610ff5565b610601858585611081565b60019150509392505050565b60006012905090565b6000610620611302565b905090565b600080610630610e22565b90506106518185856106428589610d12565b61064c9190612c29565b610e2a565b600191505092915050565b61066461141c565b61066c61149a565b565b61067661141c565b61068082826114fd565b5050565b61069561068f610e22565b8261165d565b50565b6000600560009054906101000a900460ff16905090565b60006106ba856108ab565b8411156106fc576040517f08c379a00000000000000000000000000000000000000000000000000000000081526004016106f390612afb565b60405180910390fd5b60006107088686610c98565b905061071487866114fd565b7f439148f0bbc682ca079e46d6e2c2f0c1e3b820f1a291b069d8882abf8cf18dd98773ffffffffffffffffffffffffffffffffffffffff166323e30c8b338989868a8a6040518763ffffffff1660e01b81526004016107789695949392919061272e565b602060405180830381600087803b15801561079257600080fd5b505af11580156107a6573d6000803e3d6000fd5b505050506040513d601f19601f820116820180604052508101906107ca91906121fa565b1461080a576040517f08c379a000000000000000000000000000000000000000000000000000000000815260040161080190612a3b565b60405180910390fd5b6000610814611834565b905061082c883084896108279190612c29565b610ff5565b60008214806108675750600073ffffffffffffffffffffffffffffffffffffffff168173ffffffffffffffffffffffffffffffffffffffff16145b156108865761088188838861087c9190612c29565b61165d565b61089c565b610890888761165d565b61089b888284611081565b5b60019250505095945050505050565b60003073ffffffffffffffffffffffffffffffffffffffff168273ffffffffffffffffffffffffffffffffffffffff16146108e757600061091b565b6108ef6105d4565b7fffffffffffffffffffffffffffffffffffffffffffffffffffffffffffffffff61091a9190612c7f565b5b9050919050565b60008060008373ffffffffffffffffffffffffffffffffffffffff1673ffffffffffffffffffffffffffffffffffffffff168152602001908152602001600020549050919050565b61097261141c565b61097c6000611839565b565b6109908261098a610e22565b83610ff5565b61099a828261165d565b5050565b60006109e7600660008473ffffffffffffffffffffffffffffffffffffffff1673ffffffffffffffffffffffffffffffffffffffff1681526020019081526020016000206118ff565b9050919050565b6109f661141c565b6109fe61190d565b565b6000600560019054906101000a900473ffffffffffffffffffffffffffffffffffffffff16905090565b606060048054610a3990612d66565b80601f0160208091040260200160405190810160405280929190818152602001828054610a6590612d66565b8015610ab25780601f10610a8757610100808354040283529160200191610ab2565b820191906000526020600020905b815481529060010190602001808311610a9557829003601f168201915b5050505050905090565b600080610ac7610e22565b90506000610ad58286610d12565b905083811015610b1a576040517f08c379a0000000000000000000000000000000000000000000000000000000008152600401610b1190612b7b565b60405180910390fd5b610b278286868403610e2a565b60019250505092915050565b600080610b3e610e22565b9050610b4b818585611081565b600191505092915050565b83421115610b99576040517f08c379a0000000000000000000000000000000000000000000000000000000008152600401610b90906129db565b60405180910390fd5b60007f6e71edae12b1b97f4d1f60370fef10105fa2faae0126114a169c64845d6126c9888888610bc88c611970565b89604051602001610bde969594939291906127c0565b6040516020818303038152906040528051906020012090506000610c01826119ce565b90506000610c11828787876119e8565b90508973ffffffffffffffffffffffffffffffffffffffff168173ffffffffffffffffffffffffffffffffffffffff1614610c81576040517f08c379a0000000000000000000000000000000000000000000000000000000008152600401610c7890612abb565b60405180910390fd5b610c8c8a8a8a610e2a565b50505050505050505050565b60003073ffffffffffffffffffffffffffffffffffffffff168373ffffffffffffffffffffffffffffffffffffffff1614610d08576040517f08c379a0000000000000000000000000000000000000000000000000000000008152600401610cff90612a7b565b60405180910390fd5b6000905092915050565b6000600160008473ffffffffffffffffffffffffffffffffffffffff1673ffffffffffffffffffffffffffffffffffffffff16815260200190815260200160002060008373ffffffffffffffffffffffffffffffffffffffff1673ffffffffffffffffffffffffffffffffffffffff16815260200190815260200160002054905092915050565b610da161141c565b600073ffffffffffffffffffffffffffffffffffffffff168173ffffffffffffffffffffffffffffffffffffffff161415610e11576040517f08c379a0000000000000000000000000000000000000000000000000000000008152600401610e089061297b565b60405180910390fd5b610e1a81611839565b50565b505050565b600033905090565b600073ffffffffffffffffffffffffffffffffffffffff168373ffffffffffffffffffffffffffffffffffffffff161415610e9a576040517f08c379a0000000000000000000000000000000000000000000000000000000008152600401610e9190612b5b565b60405180910390fd5b600073ffffffffffffffffffffffffffffffffffffffff168273ffffffffffffffffffffffffffffffffffffffff161415610f0a576040517f08c379a0000000000000000000000000000000000000000000000000000000008152600401610f019061299b565b60405180910390fd5b80600160008573ffffffffffffffffffffffffffffffffffffffff1673ffffffffffffffffffffffffffffffffffffffff16815260200190815260200160002060008473ffffffffffffffffffffffffffffffffffffffff1673ffffffffffffffffffffffffffffffffffffffff168152602001908152602001600020819055508173ffffffffffffffffffffffffffffffffffffffff168373ffffffffffffffffffffffffffffffffffffffff167f8c5be1e5ebec7d5bd14f71427d1e84f3dd0314c0f7b2291e5b200ac8c7c3b92583604051610fe89190612bbb565b60405180910390a3505050565b60006110018484610d12565b90507fffffffffffffffffffffffffffffffffffffffffffffffffffffffffffffffff811461107b578181101561106d576040517f08c379a0000000000000000000000000000000000000000000000000000000008152600401611064906129bb565b60405180910390fd5b61107a8484848403610e2a565b5b50505050565b600073ffffffffffffffffffffffffffffffffffffffff168373ffffffffffffffffffffffffffffffffffffffff1614156110f1576040517f08c379a00000000000000000000000000000000000000000000000000000000081526004016110e890612b3b565b60405180910390fd5b600073ffffffffffffffffffffffffffffffffffffffff168273ffffffffffffffffffffffffffffffffffffffff161415611161576040517f08c379a0000000000000000000000000000000000000000000000000000000008152600401611158906128fb565b60405180910390fd5b61116c838383611a13565b60008060008573ffffffffffffffffffffffffffffffffffffffff1673ffffffffffffffffffffffffffffffffffffffff168152602001908152602001600020549050818110156111f2576040517f08c379a00000000000000000000000000000000000000000000000000000000081526004016111e9906129fb565b60405180910390fd5b8181036000808673ffffffffffffffffffffffffffffffffffffffff1673ffffffffffffffffffffffffffffffffffffffff16815260200190815260200160002081905550816000808573ffffffffffffffffffffffffffffffffffffffff1673ffffffffffffffffffffffffffffffffffffffff16815260200190815260200160002060008282546112859190612c29565b925050819055508273ffffffffffffffffffffffffffffffffffffffff168473ffffffffffffffffffffffffffffffffffffffff167fddf252ad1be2c89b69c2b068fc378daa952ba7f163c4a11628f55a4df523b3ef846040516112e99190612bbb565b60405180910390a36112fc848484611a2b565b50505050565b60007f000000000000000000000000000000000000000000000000000000000000000073ffffffffffffffffffffffffffffffffffffffff163073ffffffffffffffffffffffffffffffffffffffff1614801561137e57507f000000000000000000000000000000000000000000000000000000000000000046145b156113ab577f00000000000000000000000000000000000000000000000000000000000000009050611419565b6114167f00000000000000000000000000000000000000000000000000000000000000007f00000000000000000000000000000000000000000000000000000000000000007f0000000000000000000000000000000000000000000000000000000000000000611a30565b90505b90565b611424610e22565b73ffffffffffffffffffffffffffffffffffffffff16611442610a00565b73ffffffffffffffffffffffffffffffffffffffff1614611498576040517f08c379a000000000000000000000000000000000000000000000000000000000815260040161148f90612adb565b60405180910390fd5b565b6114a2611a6a565b6000600560006101000a81548160ff0219169083151502179055507f5db9ee0a495bf2e6ff9c91a7834c1ba4fdd244a5e8aa4e537bd38aeae4b073aa6114e6610e22565b6040516114f39190612713565b60405180910390a1565b600073ffffffffffffffffffffffffffffffffffffffff168273ffffffffffffffffffffffffffffffffffffffff16141561156d576040517f08c379a000000000000000000000000000000000000000000000000000000000815260040161156490612b9b565b60405180910390fd5b61157960008383611a13565b806002600082825461158b9190612c29565b92505081905550806000808473ffffffffffffffffffffffffffffffffffffffff1673ffffffffffffffffffffffffffffffffffffffff16815260200190815260200160002060008282546115e09190612c29565b925050819055508173ffffffffffffffffffffffffffffffffffffffff16600073ffffffffffffffffffffffffffffffffffffffff167fddf252ad1be2c89b69c2b068fc378daa952ba7f163c4a11628f55a4df523b3ef836040516116459190612bbb565b60405180910390a361165960008383611a2b565b5050565b600073ffffffffffffffffffffffffffffffffffffffff168273ffffffffffffffffffffffffffffffffffffffff1614156116cd576040517f08c379a00000000000000000000000000000000000000000000000000000000081526004016116c490612b1b565b60405180910390fd5b6116d982600083611a13565b60008060008473ffffffffffffffffffffffffffffffffffffffff1673ffffffffffffffffffffffffffffffffffffffff1681526020019081526020016000205490508181101561175f576040517f08c379a00000000000000000000000000000000000000000000000000000000081526004016117569061293b565b60405180910390fd5b8181036000808573ffffffffffffffffffffffffffffffffffffffff1673ffffffffffffffffffffffffffffffffffffffff1681526020019081526020016000208190555081600260008282546117b69190612c7f565b92505081905550600073ffffffffffffffffffffffffffffffffffffffff168373ffffffffffffffffffffffffffffffffffffffff167fddf252ad1be2c89b69c2b068fc378daa952ba7f163c4a11628f55a4df523b3ef8460405161181b9190612bbb565b60405180910390a361182f83600084611a2b565b505050565b600090565b6000600560019054906101000a900473ffffffffffffffffffffffffffffffffffffffff16905081600560016101000a81548173ffffffffffffffffffffffffffffffffffffffff021916908373ffffffffffffffffffffffffffffffffffffffff1602179055508173ffffffffffffffffffffffffffffffffffffffff168173ffffffffffffffffffffffffffffffffffffffff167f8be0079c531659141344cd1fd0a4f28419497f9722a3daafe3b4186f6b6457e060405160405180910390a35050565b600081600001549050919050565b611915611ab3565b6001600560006101000a81548160ff0219169083151502179055507f62e78cea01bee320cd4e420270b5ea74000d11b0c9f74754ebdbfc544b05a258611959610e22565b6040516119669190612713565b60405180910390a1565b600080600660008473ffffffffffffffffffffffffffffffffffffffff1673ffffffffffffffffffffffffffffffffffffffff16815260200190815260200160002090506119bd816118ff565b91506119c881611afd565b50919050565b60006119e16119db611302565b83611b13565b9050919050565b60008060006119f987878787611b46565b91509150611a0681611c53565b8192505050949350505050565b611a1b611ab3565b611a26838383610e1d565b505050565b505050565b60008383834630604051602001611a4b959493929190612821565b6040516020818303038152906040528051906020012090509392505050565b611a72610698565b611ab1576040517f08c379a0000000000000000000000000000000000000000000000000000000008152600401611aa89061291b565b60405180910390fd5b565b611abb610698565b15611afb576040517f08c379a0000000000000000000000000000000000000000000000000000000008152600401611af290612a5b565b60405180910390fd5b565b6001816000016000828254019250508190555050565b60008282604051602001611b289291906126dc565b60405160208183030381529060405280519060200120905092915050565b6000807f7fffffffffffffffffffffffffffffff5d576e7357a4501ddfe92f46681b20a08360001c1115611b81576000600391509150611c4a565b601b8560ff1614158015611b995750601c8560ff1614155b15611bab576000600491509150611c4a565b600060018787878760405160008152602001604052604051611bd09493929190612874565b6020604051602081039080840390855afa158015611bf2573d6000803e3d6000fd5b505050602060405103519050600073ffffffffffffffffffffffffffffffffffffffff168173ffffffffffffffffffffffffffffffffffffffff161415611c4157600060019250925050611c4a565b80600092509250505b94509492505050565b60006004811115611c8d577f4e487b7100000000000000000000000000000000000000000000000000000000600052602160045260246000fd5b816004811115611cc6577f4e487b7100000000000000000000000000000000000000000000000000000000600052602160045260246000fd5b1415611cd157611fa1565b60016004811115611d0b577f4e487b7100000000000000000000000000000000000000000000000000000000600052602160045260246000fd5b816004811115611d44577f4e487b7100000000000000000000000000000000000000000000000000000000600052602160045260246000fd5b1415611d85576040517f08c379a0000000000000000000000000000000000000000000000000000000008152600401611d7c906128db565b60405180910390fd5b60026004811115611dbf577f4e487b7100000000000000000000000000000000000000000000000000000000600052602160045260246000fd5b816004811115611df8577f4e487b7100000000000000000000000000000000000000000000000000000000600052602160045260246000fd5b1415611e39576040517f08c379a0000000000000000000000000000000000000000000000000000000008152600401611e309061295b565b60405180910390fd5b60036004811115611e73577f4e487b7100000000000000000000000000000000000000000000000000000000600052602160045260246000fd5b816004811115611eac577f4e487b7100000000000000000000000000000000000000000000000000000000600052602160045260246000fd5b1415611eed576040517f08c379a0000000000000000000000000000000000000000000000000000000008152600401611ee490612a1b565b60405180910390fd5b600480811115611f26577f4e487b7100000000000000000000000000000000000000000000000000000000600052602160045260246000fd5b816004811115611f5f577f4e487b7100000000000000000000000000000000000000000000000000000000600052602160045260246000fd5b1415611fa0576040517f08c379a0000000000000000000000000000000000000000000000000000000008152600401611f9790612a9b565b60405180910390fd5b5b50565b600081359050611fb3816133d7565b92915050565b600081359050611fc8816133ee565b92915050565b600081519050611fdd816133ee565b92915050565b60008083601f840112611ff557600080fd5b8235905067ffffffffffffffff81111561200e57600080fd5b60208301915083600182028301111561202657600080fd5b9250929050565b60008135905061203c81613405565b92915050565b6000813590506120518161341c565b92915050565b60008135905061206681613433565b92915050565b60006020828403121561207e57600080fd5b600061208c84828501611fa4565b91505092915050565b600080604083850312156120a857600080fd5b60006120b685828601611fa4565b92505060206120c785828601611fa4565b9150509250929050565b6000806000606084860312156120e657600080fd5b60006120f486828701611fa4565b935050602061210586828701611fa4565b925050604061211686828701612042565b9150509250925092565b600080600080600080600060e0888a03121561213b57600080fd5b60006121498a828b01611fa4565b975050602061215a8a828b01611fa4565b965050604061216b8a828b01612042565b955050606061217c8a828b01612042565b945050608061218d8a828b01612057565b93505060a061219e8a828b01611fb9565b92505060c06121af8a828b01611fb9565b91505092959891949750929550565b600080604083850312156121d157600080fd5b60006121df85828601611fa4565b92505060206121f085828601612042565b9150509250929050565b60006020828403121561220c57600080fd5b600061221a84828501611fce565b91505092915050565b60008060008060006080868803121561223b57600080fd5b60006122498882890161202d565b955050602061225a88828901611fa4565b945050604061226b88828901612042565b935050606086013567ffffffffffffffff81111561228857600080fd5b61229488828901611fe3565b92509250509295509295909350565b6000602082840312156122b557600080fd5b60006122c384828501612042565b91505092915050565b6122d581612cb3565b82525050565b6122e481612cc5565b82525050565b6122f381612cd1565b82525050565b61230a61230582612cd1565b612d98565b82525050565b600061231c8385612bfc565b9350612329838584612d24565b61233283612e00565b840190509392505050565b600061234882612bf1565b6123528185612c0d565b9350612362818560208601612d33565b61236b81612e00565b840191505092915050565b6000612383601883612c0d565b915061238e82612e11565b602082019050919050565b60006123a6602383612c0d565b91506123b182612e3a565b604082019050919050565b60006123c9601483612c0d565b91506123d482612e89565b602082019050919050565b60006123ec602283612c0d565b91506123f782612eb2565b604082019050919050565b600061240f601f83612c0d565b915061241a82612f01565b602082019050919050565b6000612432602683612c0d565b915061243d82612f2a565b604082019050919050565b6000612455602283612c0d565b915061246082612f79565b604082019050919050565b6000612478600283612c1e565b915061248382612fc8565b600282019050919050565b600061249b601d83612c0d565b91506124a682612ff1565b602082019050919050565b60006124be601d83612c0d565b91506124c98261301a565b602082019050919050565b60006124e1602683612c0d565b91506124ec82613043565b604082019050919050565b6000612504602283612c0d565b915061250f82613092565b604082019050919050565b6000612527602483612c0d565b9150612532826130e1565b604082019050919050565b600061254a601083612c0d565b915061255582613130565b602082019050919050565b600061256d601b83612c0d565b915061257882613159565b602082019050919050565b6000612590602283612c0d565b915061259b82613182565b604082019050919050565b60006125b3601e83612c0d565b91506125be826131d1565b602082019050919050565b60006125d6602083612c0d565b91506125e1826131fa565b602082019050919050565b60006125f9602b83612c0d565b915061260482613223565b604082019050919050565b600061261c602183612c0d565b915061262782613272565b604082019050919050565b600061263f602583612c0d565b915061264a826132c1565b604082019050919050565b6000612662602483612c0d565b915061266d82613310565b604082019050919050565b6000612685602583612c0d565b91506126908261335f565b604082019050919050565b60006126a8601f83612c0d565b91506126b3826133ae565b602082019050919050565b6126c781612d0d565b82525050565b6126d681612d17565b82525050565b60006126e78261246b565b91506126f382856122f9565b60208201915061270382846122f9565b6020820191508190509392505050565b600060208201905061272860008301846122cc565b92915050565b600060a08201905061274360008301896122cc565b61275060208301886122cc565b61275d60408301876126be565b61276a60608301866126be565b818103608083015261277d818486612310565b9050979650505050505050565b600060208201905061279f60008301846122db565b92915050565b60006020820190506127ba60008301846122ea565b92915050565b600060c0820190506127d560008301896122ea565b6127e260208301886122cc565b6127ef60408301876122cc565b6127fc60608301866126be565b61280960808301856126be565b61281660a08301846126be565b979650505050505050565b600060a08201905061283660008301886122ea565b61284360208301876122ea565b61285060408301866122ea565b61285d60608301856126be565b61286a60808301846122cc565b9695505050505050565b600060808201905061288960008301876122ea565b61289660208301866126cd565b6128a360408301856122ea565b6128b060608301846122ea565b95945050505050565b600060208201905081810360008301526128d3818461233d565b905092915050565b600060208201905081810360008301526128f481612376565b9050919050565b6000602082019050818103600083015261291481612399565b9050919050565b60006020820190508181036000830152612934816123bc565b9050919050565b60006020820190508181036000830152612954816123df565b9050919050565b6000602082019050818103600083015261297481612402565b9050919050565b6000602082019050818103600083015261299481612425565b9050919050565b600060208201905081810360008301526129b481612448565b9050919050565b600060208201905081810360008301526129d48161248e565b9050919050565b600060208201905081810360008301526129f4816124b1565b9050919050565b60006020820190508181036000830152612a14816124d4565b9050919050565b60006020820190508181036000830152612a34816124f7565b9050919050565b60006020820190508181036000830152612a548161251a565b9050919050565b60006020820190508181036000830152612a748161253d565b9050919050565b60006020820190508181036000830152612a9481612560565b9050919050565b60006020820190508181036000830152612ab481612583565b9050919050565b60006020820190508181036000830152612ad4816125a6565b9050919050565b60006020820190508181036000830152612af4816125c9565b9050919050565b60006020820190508181036000830152612b14816125ec565b9050919050565b60006020820190508181036000830152612b348161260f565b9050919050565b60006020820190508181036000830152612b5481612632565b9050919050565b60006020820190508181036000830152612b7481612655565b9050919050565b60006020820190508181036000830152612b9481612678565b9050919050565b60006020820190508181036000830152612bb48161269b565b9050919050565b6000602082019050612bd060008301846126be565b92915050565b6000602082019050612beb60008301846126cd565b92915050565b600081519050919050565b600082825260208201905092915050565b600082825260208201905092915050565b600081905092915050565b6000612c3482612d0d565b9150612c3f83612d0d565b9250827fffffffffffffffffffffffffffffffffffffffffffffffffffffffffffffffff03821115612c7457612c73612da2565b5b828201905092915050565b6000612c8a82612d0d565b9150612c9583612d0d565b925082821015612ca857612ca7612da2565b5b828203905092915050565b6000612cbe82612ced565b9050919050565b60008115159050919050565b6000819050919050565b6000612ce682612cb3565b9050919050565b600073ffffffffffffffffffffffffffffffffffffffff82169050919050565b6000819050919050565b600060ff82169050919050565b82818337600083830152505050565b60005b83811015612d51578082015181840152602081019050612d36565b83811115612d60576000848401525b50505050565b60006002820490506001821680612d7e57607f821691505b60208210811415612d9257612d91612dd1565b5b50919050565b6000819050919050565b7f4e487b7100000000000000000000000000000000000000000000000000000000600052601160045260246000fd5b7f4e487b7100000000000000000000000000000000000000000000000000000000600052602260045260246000fd5b6000601f19601f8301169050919050565b7f45434453413a20696e76616c6964207369676e61747572650000000000000000600082015250565b7f45524332303a207472616e7366657220746f20746865207a65726f206164647260008201527f6573730000000000000000000000000000000000000000000000000000000000602082015250565b7f5061757361626c653a206e6f7420706175736564000000000000000000000000600082015250565b7f45524332303a206275726e20616d6f756e7420657863656564732062616c616e60008201527f6365000000000000000000000000000000000000000000000000000000000000602082015250565b7f45434453413a20696e76616c6964207369676e6174757265206c656e67746800600082015250565b7f4f776e61626c653a206e6577206f776e657220697320746865207a65726f206160008201527f6464726573730000000000000000000000000000000000000000000000000000602082015250565b7f45524332303a20617070726f766520746f20746865207a65726f20616464726560008201527f7373000000000000000000000000000000000000000000000000000000000000602082015250565b7f1901000000000000000000000000000000000000000000000000000000000000600082015250565b7f45524332303a20696e73756666696369656e7420616c6c6f77616e6365000000600082015250565b7f45524332305065726d69743a206578706972656420646561646c696e65000000600082015250565b7f45524332303a207472616e7366657220616d6f756e742065786365656473206260008201527f616c616e63650000000000000000000000000000000000000000000000000000602082015250565b7f45434453413a20696e76616c6964207369676e6174757265202773272076616c60008201527f7565000000000000000000000000000000000000000000000000000000000000602082015250565b7f4552433230466c6173684d696e743a20696e76616c69642072657475726e207660008201527f616c756500000000000000000000000000000000000000000000000000000000602082015250565b7f5061757361626c653a2070617573656400000000000000000000000000000000600082015250565b7f4552433230466c6173684d696e743a2077726f6e6720746f6b656e0000000000600082015250565b7f45434453413a20696e76616c6964207369676e6174757265202776272076616c60008201527f7565000000000000000000000000000000000000000000000000000000000000602082015250565b7f45524332305065726d69743a20696e76616c6964207369676e61747572650000600082015250565b7f4f776e61626c653a2063616c6c6572206973206e6f7420746865206f776e6572600082015250565b7f4552433230466c6173684d696e743a20616d6f756e742065786365656473206d60008201527f6178466c6173684c6f616e000000000000000000000000000000000000000000602082015250565b7f45524332303a206275726e2066726f6d20746865207a65726f2061646472657360008201527f7300000000000000000000000000000000000000000000000000000000000000602082015250565b7f45524332303a207472616e736665722066726f6d20746865207a65726f20616460008201527f6472657373000000000000000000000000000000000000000000000000000000602082015250565b7f45524332303a20617070726f76652066726f6d20746865207a65726f2061646460008201527f7265737300000000000000000000000000000000000000000000000000000000602082015250565b7f45524332303a2064656372656173656420616c6c6f77616e63652062656c6f7760008201527f207a65726f000000000000000000000000000000000000000000000000000000602082015250565b7f45524332303a206d696e7420746f20746865207a65726f206164647265737300600082015250565b6133e081612cb3565b81146133eb57600080fd5b50565b6133f781612cd1565b811461340257600080fd5b50565b61340e81612cdb565b811461341957600080fd5b50565b61342581612d0d565b811461343057600080fd5b50565b61343c81612d17565b811461344757600080fd5b5056fea2646970667358221220da80e5ec9d4501a45373668c1051851852ea44e43adc5c115a0961c2a4c0b33b64736f6c63430008040033",
  "linkReferences": {},
  "deployedLinkReferences": {}
}